{"abi":[{"type":"constructor","inputs":[{"name":"admin","type":"address","internalType":"address"}],"stateMutability":"nonpayable"},{"type":"function","name":"AUDITOR_ROLE","inputs":[],"outputs":[{"name":"","type":"bytes32","internalType":"bytes32"}],"stateMutability":"view"},{"type":"function","name":"BANCO_SANGRE_ROLE","inputs":[],"outputs":[{"name":"","type":"bytes32","internalType":"bytes32"}],"stateMutability":"view"},{"type":"function","name":"CERTIFICADOR_ROLE","inputs":[],"outputs":[{"name":"","type":"bytes32","internalType":"bytes32"}],"stateMutability":"view"},{"type":"function","name":"DEFAULT_ADMIN_ROLE","inputs":[],"outputs":[{"name":"","type":"bytes32","internalType":"bytes32"}],"stateMutability":"view"},{"type":"function","name":"FRACCIONAMIENTO_ROLE","inputs":[],"outputs":[{"name":"","type":"bytes32","internalType":"bytes32"}],"stateMutability":"view"},{"type":"function","name":"LABORATORIO_ROLE","inputs":[],"outputs":[{"name":"","type":"bytes32","internalType":"bytes32"}],"stateMutability":"view"},{"type":"function","name":"MEDICINA_TRANSFUSIONAL_ROLE","inputs":[],"outputs":[{"name":"","type":"bytes32","internalType":"bytes32"}],"stateMutability":"view"},{"type":"function","name":"actorOf","inputs":[{"name":"addr","type":"address","internalType":"address"}],"outputs":[{"name":"","type":"tuple","internalType":"struct HemaRegistry.Actor","components":[{"name":"addr","type":"address","internalType":"address"},{"name":"role","type":"bytes32","internalType":"bytes32"},{"name":"name","type":"string","internalType":"string"},{"name":"country","type":"string","internalType":"string"},{"name":"registeredAt","type":"uint256","internalType":"uint256"}]}],"stateMutability":"view"},{"type":"function","name":"approveRole","inputs":[{"name":"actor","type":"address","internalType":"address"}],"outputs":[],"stateMutability":"nonpayable"},{"type":"function","name":"getRoleAdmin","inputs":[{"name":"role","type":"bytes32","internalType":"bytes32"}],"outputs":[{"name":"","type":"bytes32","internalType":"bytes32"}],"stateMutability":"view"},{"type":"function","name":"getRoleMember","inputs":[{"name":"role","type":"bytes32","internalType":"bytes32"},{"name":"index","type":"uint256","internalType":"uint256"}],"outputs":[{"name":"","type":"address","internalType":"address"}],"stateMutability":"view"},{"type":"function","name":"getRoleMemberCount","inputs":[{"name":"role","type":"bytes32","internalType":"bytes32"}],"outputs":[{"name":"","type":"uint256","internalType":"uint256"}],"stateMutability":"view"},{"type":"function","name":"getRoleMembers","inputs":[{"name":"role","type":"bytes32","internalType":"bytes32"}],"outputs":[{"name":"","type":"address[]","internalType":"address[]"}],"stateMutability":"view"},{"type":"function","name":"grantRole","inputs":[{"name":"role","type":"bytes32","internalType":"bytes32"},{"name":"account","type":"address","internalType":"address"}],"outputs":[],"stateMutability":"nonpayable"},{"type":"function","name":"hasRole","inputs":[{"name":"role","type":"bytes32","internalType":"bytes32"},{"name":"account","type":"address","internalType":"address"}],"outputs":[{"name":"","type":"bool","internalType":"bool"}],"stateMutability":"view"},{"type":"function","name":"isActive","inputs":[{"name":"addr","type":"address","internalType":"address"}],"outputs":[{"name":"","type":"bool","internalType":"bool"}],"stateMutability":"view"},{"type":"function","name":"pendingRequest","inputs":[{"name":"addr","type":"address","internalType":"address"}],"outputs":[{"name":"","type":"tuple","internalType":"struct HemaRegistry.PendingRequest","components":[{"name":"role","type":"bytes32","internalType":"bytes32"},{"name":"name","type":"string","internalType":"string"},{"name":"country","type":"string","internalType":"string"},{"name":"requestedAt","type":"uint256","internalType":"uint256"}]}],"stateMutability":"view"},{"type":"function","name":"rejectRole","inputs":[{"name":"actor","type":"address","internalType":"address"}],"outputs":[],"stateMutability":"nonpayable"},{"type":"function","name":"renounceRole","inputs":[{"name":"role","type":"bytes32","internalType":"bytes32"},{"name":"callerConfirmation","type":"address","internalType":"address"}],"outputs":[],"stateMutability":"nonpayable"},{"type":"function","name":"requestRole","inputs":[{"name":"role","type":"bytes32","internalType":"bytes32"},{"name":"name","type":"string","internalType":"string"},{"name":"country","type":"string","internalType":"string"}],"outputs":[],"stateMutability":"nonpayable"},{"type":"function","name":"revokeRole","inputs":[{"name":"role","type":"bytes32","internalType":"bytes32"},{"name":"account","type":"address","internalType":"address"}],"outputs":[],"stateMutability":"nonpayable"},{"type":"function","name":"supportsInterface","inputs":[{"name":"interfaceId","type":"bytes4","internalType":"bytes4"}],"outputs":[{"name":"","type":"bool","internalType":"bool"}],"stateMutability":"view"},{"type":"event","name":"ActorRegistered","inputs":[{"name":"actor","type":"address","indexed":true,"internalType":"address"},{"name":"role","type":"bytes32","indexed":true,"internalType":"bytes32"},{"name":"name","type":"string","indexed":false,"internalType":"string"},{"name":"country","type":"string","indexed":false,"internalType":"string"},{"name":"registeredAt","type":"uint256","indexed":false,"internalType":"uint256"}],"anonymous":false},{"type":"event","name":"RoleAdminChanged","inputs":[{"name":"role","type":"bytes32","indexed":true,"internalType":"bytes32"},{"name":"previousAdminRole","type":"bytes32","indexed":true,"internalType":"bytes32"},{"name":"newAdminRole","type":"bytes32","indexed":true,"internalType":"bytes32"}],"anonymous":false},{"type":"event","name":"RoleApproved","inputs":[{"name":"actor","type":"address","indexed":true,"internalType":"address"},{"name":"role","type":"bytes32","indexed":true,"internalType":"bytes32"},{"name":"admin","type":"address","indexed":true,"internalType":"address"}],"anonymous":false},{"type":"event","name":"RoleGranted","inputs":[{"name":"role","type":"bytes32","indexed":true,"internalType":"bytes32"},{"name":"account","type":"address","indexed":true,"internalType":"address"},{"name":"sender","type":"address","indexed":true,"internalType":"address"}],"anonymous":false},{"type":"event","name":"RoleRejected","inputs":[{"name":"actor","type":"address","indexed":true,"internalType":"address"},{"name":"role","type":"bytes32","indexed":true,"internalType":"bytes32"},{"name":"admin","type":"address","indexed":true,"internalType":"address"}],"anonymous":false},{"type":"event","name":"RoleRequested","inputs":[{"name":"actor","type":"address","indexed":true,"internalType":"address"},{"name":"role","type":"bytes32","indexed":true,"internalType":"bytes32"},{"name":"name","type":"string","indexed":false,"internalType":"string"},{"name":"country","type":"string","indexed":false,"internalType":"string"}],"anonymous":false},{"type":"event","name":"RoleRevoked","inputs":[{"name":"role","type":"bytes32","indexed":true,"internalType":"bytes32"},{"name":"account","type":"address","indexed":true,"internalType":"address"},{"name":"sender","type":"address","indexed":true,"internalType":"address"}],"anonymous":false},{"type":"error","name":"AccessControlBadConfirmation","inputs":[]},{"type":"error","name":"AccessControlUnauthorizedAccount","inputs":[{"name":"account","type":"address","internalType":"address"},{"name":"neededRole","type":"bytes32","internalType":"bytes32"}]},{"type":"error","name":"AlreadyRegistered","inputs":[{"name":"actor","type":"address","internalType":"address"}]},{"type":"error","name":"InvalidRole","inputs":[{"name":"role","type":"bytes32","internalType":"bytes32"}]},{"type":"error","name":"NoPendingRequest","inputs":[{"name":"actor","type":"address","internalType":"address"}]},{"type":"error","name":"RequestAlreadyExists","inputs":[{"name":"actor","type":"address","internalType":"address"}]}],"bytecode":{"object":"0x608060405234801562000010575f80fd5b5060405162001ad038038062001ad0833981016040819052620000339162000184565b6200003f5f8262000047565b5050620001ac565b5f8062000055848462000082565b9050801562000079575f8481526001602052604090206200007790846200012d565b505b90505b92915050565b5f828152602081815260408083206001600160a01b038516845290915281205460ff1662000125575f838152602081815260408083206001600160a01b03861684529091529020805460ff19166001179055620000dc3390565b6001600160a01b0316826001600160a01b0316847f2f8788117e7eff1d82e926ec794901d17c78024a50270940304540a733656f0d60405160405180910390a45060016200007c565b505f6200007c565b5f62000079836001600160a01b0384165f8181526001830160205260408120546200012557508154600181810184555f8481526020808220909301849055845484825282860190935260409020919091556200007c565b5f6020828403121562000195575f80fd5b81516001600160a01b038116811462000079575f80fd5b61191680620001ba5f395ff3fe608060405234801561000f575f80fd5b506004361061013d575f3560e01c806391d14854116100b4578063a5e165d911610079578063a5e165d91461032f578063a664d90f14610356578063ca15c87314610376578063d547741f14610389578063ddb3ac261461039c578063e1023b88146103af575f80fd5b806391d14854146102cf57806393800661146102e25780639f8a13d7146102f5578063a217fddf14610308578063a3246ad31461030f575f80fd5b806336568abe1161010557806336568abe146101f557806341f3de18146102085780635bb65d321461022f5780636e1d616e146102565780637cedcb5a1461027d5780639010d07c146102a4575f80fd5b806301ffc9a7146101415780632164961d14610169578063248a9ca3146101895780632f2ff15d146101b9578063313f2fd5146101ce575b5f80fd5b61015461014f366004611422565b6103c2565b60405190151581526020015b60405180910390f35b61017c610177366004611464565b6103ec565b60405161016091906114c0565b6101ab61019736600461152b565b5f9081526020819052604090206001015490565b604051908152602001610160565b6101cc6101c7366004611542565b610592565b005b6101ab7f5ceff9ba5873fd31bbfacbf78f1d51aeb13a5c51dfecf235a30068e4384b5db381565b6101cc610203366004611542565b6105bc565b6101ab7f3edb176ec4105d973aacf9405887e81abb3370b6f16af53a5f22ce8e26d8c1fa81565b6101ab7f9f7ae8bd838760bff50bd98083575943b5e90951418351dc2c43facba54f159681565b6101ab7fd8994f6d76f930dc5ea8c60e38e6334a87bb8539cc3082ac6828681c33316e3d81565b6101ab7faee6575613c5b25db9c1905e89bf45454ad80684cc988193d821d0afeff4ca7381565b6102b76102b236600461156c565b6105f4565b6040516001600160a01b039091168152602001610160565b6101546102dd366004611542565b610612565b6101cc6102f03660046115d1565b61063a565b610154610303366004611464565b6107ea565b6101ab5f81565b61032261031d36600461152b565b610819565b6040516101609190611645565b6101ab7fb8e5e8de739e319ea0e7c81874bb3ed7200ff93ae08251417f159855d55657f381565b610369610364366004611464565b610832565b6040516101609190611691565b6101ab61038436600461152b565b6109bb565b6101cc610397366004611542565b6109d1565b6101cc6103aa366004611464565b6109f5565b6101cc6103bd366004611464565b610d05565b5f6001600160e01b03198216635a05180f60e01b14806103e657506103e682610f1d565b92915050565b6104276040518060a001604052805f6001600160a01b031681526020015f801916815260200160608152602001606081526020015f81525090565b6001600160a01b038083165f90815260026020818152604092839020835160a0810185528154909516855260018101549185019190915290810180549192840191610471906116ea565b80601f016020809104026020016040519081016040528092919081815260200182805461049d906116ea565b80156104e85780601f106104bf576101008083540402835291602001916104e8565b820191905f5260205f20905b8154815290600101906020018083116104cb57829003601f168201915b50505050508152602001600382018054610501906116ea565b80601f016020809104026020016040519081016040528092919081815260200182805461052d906116ea565b80156105785780601f1061054f57610100808354040283529160200191610578565b820191905f5260205f20905b81548152906001019060200180831161055b57829003601f168201915b505050505081526020016004820154815250509050919050565b5f828152602081905260409020600101546105ac81610f51565b6105b68383610f5e565b50505050565b6001600160a01b03811633146105e55760405163334bd91960e11b815260040160405180910390fd5b6105ef8282610f91565b505050565b5f82815260016020526040812061060b9083610fbc565b9392505050565b5f918252602082815260408084206001600160a01b0393909316845291905290205460ff1690565b61064385610fc7565b6106685760405163125a2bb760e01b8152600481018690526024015b60405180910390fd5b335f908152600260205260409020600401541561069a576040516345ed80e960e01b815233600482015260240161065f565b335f9081526003602081905260409091200154156106cd57604051630b5bc36160e01b815233600482015260240161065f565b604051806080016040528086815260200185858080601f0160208091040260200160405190810160405280939291908181526020018383808284375f92019190915250505090825250604080516020601f8601819004810282018101909252848152918101919085908590819084018382808284375f920182905250938552505042602093840152503381526003825260409020825181559082015160018201906107789082611781565b506040820151600282019061078d9082611781565b506060820151816003015590505084336001600160a01b03167fd0aab69af7d5276fe690b72d362b4b59e7eadabcc616bebd5530a6e0e812f18b868686866040516107db9493929190611869565b60405180910390a35050505050565b6001600160a01b0381165f90815260026020526040812060010154801580159061060b575061060b8184610612565b5f8181526001602052604090206060906103e6906110bf565b61085e60405180608001604052805f801916815260200160608152602001606081526020015f81525090565b6001600160a01b0382165f9081526003602090815260409182902082516080810190935280548352600181018054919284019161089a906116ea565b80601f01602080910402602001604051908101604052809291908181526020018280546108c6906116ea565b80156109115780601f106108e857610100808354040283529160200191610911565b820191905f5260205f20905b8154815290600101906020018083116108f457829003601f168201915b5050505050815260200160028201805461092a906116ea565b80601f0160208091040260200160405190810160405280929190818152602001828054610956906116ea565b80156109a15780601f10610978576101008083540402835291602001916109a1565b820191905f5260205f20905b81548152906001019060200180831161098457829003601f168201915b505050505081526020016003820154815250509050919050565b5f8181526001602052604081206103e6906110cb565b5f828152602081905260409020600101546109eb81610f51565b6105b68383610f91565b5f6109ff81610f51565b5f60035f846001600160a01b03166001600160a01b031681526020019081526020015f206040518060800160405290815f8201548152602001600182018054610a47906116ea565b80601f0160208091040260200160405190810160405280929190818152602001828054610a73906116ea565b8015610abe5780601f10610a9557610100808354040283529160200191610abe565b820191905f5260205f20905b815481529060010190602001808311610aa157829003601f168201915b50505050508152602001600282018054610ad7906116ea565b80601f0160208091040260200160405190810160405280929190818152602001828054610b03906116ea565b8015610b4e5780601f10610b2557610100808354040283529160200191610b4e565b820191905f5260205f20905b815481529060010190602001808311610b3157829003601f168201915b50505050508152602001600382015481525050905080606001515f03610b9257604051630d6d13ad60e31b81526001600160a01b038416600482015260240161065f565b6040805160a0810182526001600160a01b0385811680835284516020808501918252808701518587019081528787015160608701524260808701525f93845260029182905295909220845181546001600160a01b031916941693909317835551600183015592519192909190820190610c0b9082611781565b5060608201516003820190610c209082611781565b50608091909101516004909101556001600160a01b0383165f90815260036020526040812081815590610c5660018301826113d8565b610c63600283015f6113d8565b505f600391909101558051610c789084610f5e565b508051602082015160408084015190516001600160a01b038716927fb953b5057d8585352cdaae82f802ed4acdd7b447328a030284dd5cf95f096e5e92610cc092429061189a565b60405180910390a380516040513391906001600160a01b038616907f9c14a71b1abc43fda1a1e8dae42e3b258935b40c30eae40d89841dcdc2e9601b905f90a4505050565b5f610d0f81610f51565b5f60035f846001600160a01b03166001600160a01b031681526020019081526020015f206040518060800160405290815f8201548152602001600182018054610d57906116ea565b80601f0160208091040260200160405190810160405280929190818152602001828054610d83906116ea565b8015610dce5780601f10610da557610100808354040283529160200191610dce565b820191905f5260205f20905b815481529060010190602001808311610db157829003601f168201915b50505050508152602001600282018054610de7906116ea565b80601f0160208091040260200160405190810160405280929190818152602001828054610e13906116ea565b8015610e5e5780601f10610e3557610100808354040283529160200191610e5e565b820191905f5260205f20905b815481529060010190602001808311610e4157829003601f168201915b50505050508152602001600382015481525050905080606001515f03610ea257604051630d6d13ad60e31b81526001600160a01b038416600482015260240161065f565b6001600160a01b0383165f90815260036020526040812081815590610eca60018301826113d8565b610ed7600283015f6113d8565b505f600391909101819055815160405133926001600160a01b038716917fcdeab31633f98fedaa61a9c80c0fb419dfca88799f93b402878a62adf55127e09190a4505050565b5f6001600160e01b03198216637965db0b60e01b14806103e657506301ffc9a760e01b6001600160e01b03198316146103e6565b610f5b81336110d4565b50565b5f80610f6a8484611111565b9050801561060b575f848152600160205260409020610f8990846111a0565b509392505050565b5f80610f9d84846111b4565b9050801561060b575f848152600160205260409020610f89908461121d565b5f61060b8383611231565b5f7f3edb176ec4105d973aacf9405887e81abb3370b6f16af53a5f22ce8e26d8c1fa82148061101557507f9f7ae8bd838760bff50bd98083575943b5e90951418351dc2c43facba54f159682145b8061103f57507fb8e5e8de739e319ea0e7c81874bb3ed7200ff93ae08251417f159855d55657f382145b8061106957507faee6575613c5b25db9c1905e89bf45454ad80684cc988193d821d0afeff4ca7382145b8061109357507fd8994f6d76f930dc5ea8c60e38e6334a87bb8539cc3082ac6828681c33316e3d82145b806103e65750507f5ceff9ba5873fd31bbfacbf78f1d51aeb13a5c51dfecf235a30068e4384b5db31490565b60605f61060b83611257565b5f6103e6825490565b6110de8282610612565b61110d5760405163e2517d3f60e01b81526001600160a01b03821660048201526024810183905260440161065f565b5050565b5f61111c8383610612565b611199575f838152602081815260408083206001600160a01b03861684529091529020805460ff191660011790556111513390565b6001600160a01b0316826001600160a01b0316847f2f8788117e7eff1d82e926ec794901d17c78024a50270940304540a733656f0d60405160405180910390a45060016103e6565b505f6103e6565b5f61060b836001600160a01b0384166112b0565b5f6111bf8383610612565b15611199575f838152602081815260408083206001600160a01b0386168085529252808320805460ff1916905551339286917ff6391f5c32d9c69d2a47ea670b442974b53935d1edc7fd64eb21e047a839171b9190a45060016103e6565b5f61060b836001600160a01b0384166112f5565b5f825f018281548110611246576112466118cf565b905f5260205f200154905092915050565b6060815f018054806020026020016040519081016040528092919081815260200182805480156112a457602002820191905f5260205f20905b815481526020019060010190808311611290575b50505050509050919050565b5f81815260018301602052604081205461119957508154600181810184555f8481526020808220909301849055845484825282860190935260409020919091556103e6565b5f81815260018301602052604081205480156113cf575f6113176001836118e3565b85549091505f9061132a906001906118e3565b9050808214611389575f865f018281548110611348576113486118cf565b905f5260205f200154905080875f018481548110611368576113686118cf565b5f918252602080832090910192909255918252600188019052604090208390555b855486908061139a5761139a611902565b600190038181905f5260205f20015f90559055856001015f8681526020019081526020015f205f9055600193505050506103e6565b5f9150506103e6565b5080546113e4906116ea565b5f825580601f106113f3575050565b601f0160209004905f5260205f2090810190610f5b91905b8082111561141e575f815560010161140b565b5090565b5f60208284031215611432575f80fd5b81356001600160e01b03198116811461060b575f80fd5b80356001600160a01b038116811461145f575f80fd5b919050565b5f60208284031215611474575f80fd5b61060b82611449565b5f81518084525f5b818110156114a157602081850181015186830182015201611485565b505f602082860101526020601f19601f83011685010191505092915050565b6020815260018060a01b038251166020820152602082015160408201525f604083015160a060608401526114f760c084018261147d565b90506060840151601f19848303016080850152611514828261147d565b915050608084015160a08401528091505092915050565b5f6020828403121561153b575f80fd5b5035919050565b5f8060408385031215611553575f80fd5b8235915061156360208401611449565b90509250929050565b5f806040838503121561157d575f80fd5b50508035926020909101359150565b5f8083601f84011261159c575f80fd5b50813567ffffffffffffffff8111156115b3575f80fd5b6020830191508360208285010111156115ca575f80fd5b9250929050565b5f805f805f606086880312156115e5575f80fd5b85359450602086013567ffffffffffffffff80821115611603575f80fd5b61160f89838a0161158c565b90965094506040880135915080821115611627575f80fd5b506116348882890161158c565b969995985093965092949392505050565b602080825282518282018190525f9190848201906040850190845b818110156116855783516001600160a01b031683529284019291840191600101611660565b50909695505050505050565b60208152815160208201525f6020830151608060408401526116b660a084018261147d565b90506040840151601f198483030160608501526116d3828261147d565b915050606084015160808401528091505092915050565b600181811c908216806116fe57607f821691505b60208210810361171c57634e487b7160e01b5f52602260045260245ffd5b50919050565b634e487b7160e01b5f52604160045260245ffd5b601f8211156105ef57805f5260205f20601f840160051c8101602085101561175b5750805b601f840160051c820191505b8181101561177a575f8155600101611767565b5050505050565b815167ffffffffffffffff81111561179b5761179b611722565b6117af816117a984546116ea565b84611736565b602080601f8311600181146117e2575f84156117cb5750858301515b5f19600386901b1c1916600185901b178555611839565b5f85815260208120601f198616915b82811015611810578886015182559484019460019091019084016117f1565b508582101561182d57878501515f19600388901b60f8161c191681555b505060018460011b0185555b505050505050565b81835281816020850137505f828201602090810191909152601f909101601f19169091010190565b604081525f61187c604083018688611841565b828103602084015261188f818587611841565b979650505050505050565b606081525f6118ac606083018661147d565b82810360208401526118be818661147d565b915050826040830152949350505050565b634e487b7160e01b5f52603260045260245ffd5b818103818111156103e657634e487b7160e01b5f52601160045260245ffd5b634e487b7160e01b5f52603160045260245ffd","linkReferences":{}},"methodIdentifiers":{"AUDITOR_ROLE()":"6e1d616e","BANCO_SANGRE_ROLE()":"41f3de18","CERTIFICADOR_ROLE()":"313f2fd5","DEFAULT_ADMIN_ROLE()":"a217fddf","FRACCIONAMIENTO_ROLE()":"a5e165d9","LABORATORIO_ROLE()":"5bb65d32","MEDICINA_TRANSFUSIONAL_ROLE()":"7cedcb5a","actorOf(address)":"2164961d","approveRole(address)":"ddb3ac26","getRoleAdmin(bytes32)":"248a9ca3","getRoleMember(bytes32,uint256)":"9010d07c","getRoleMemberCount(bytes32)":"ca15c873","getRoleMembers(bytes32)":"a3246ad3","grantRole(bytes32,address)":"2f2ff15d","hasRole(bytes32,address)":"91d14854","isActive(address)":"9f8a13d7","pendingRequest(address)":"a664d90f","rejectRole(address)":"e1023b88","renounceRole(bytes32,address)":"36568abe","requestRole(bytes32,string,string)":"93800661","revokeRole(bytes32,address)":"d547741f","supportsInterface(bytes4)":"01ffc9a7"},"id":46}