{"abi":[{"type":"constructor","inputs":[{"name":"registry_","type":"address","internalType":"address"}],"stateMutability":"nonpayable"},{"type":"function","name":"approve","inputs":[{"name":"to","type":"address","internalType":"address"},{"name":"tokenId","type":"uint256","internalType":"uint256"}],"outputs":[],"stateMutability":"nonpayable"},{"type":"function","name":"balanceOf","inputs":[{"name":"owner","type":"address","internalType":"address"}],"outputs":[{"name":"","type":"uint256","internalType":"uint256"}],"stateMutability":"view"},{"type":"function","name":"getApproved","inputs":[{"name":"tokenId","type":"uint256","internalType":"uint256"}],"outputs":[{"name":"","type":"address","internalType":"address"}],"stateMutability":"view"},{"type":"function","name":"isApprovedForAll","inputs":[{"name":"owner","type":"address","internalType":"address"},{"name":"operator","type":"address","internalType":"address"}],"outputs":[{"name":"","type":"bool","internalType":"bool"}],"stateMutability":"view"},{"type":"function","name":"issueCertificate","inputs":[{"name":"subject","type":"address","internalType":"address"},{"name":"certType","type":"uint8","internalType":"enum HemaCertificate.CertType"},{"name":"expiresAt","type":"uint256","internalType":"uint256"},{"name":"documentHash","type":"bytes32","internalType":"bytes32"},{"name":"ipfsCID","type":"string","internalType":"string"}],"outputs":[{"name":"tokenId","type":"uint256","internalType":"uint256"}],"stateMutability":"nonpayable"},{"type":"function","name":"metadataOf","inputs":[{"name":"tokenId","type":"uint256","internalType":"uint256"}],"outputs":[{"name":"","type":"tuple","internalType":"struct HemaCertificate.Metadata","components":[{"name":"certType","type":"uint8","internalType":"enum HemaCertificate.CertType"},{"name":"issuer","type":"address","internalType":"address"},{"name":"issuedAt","type":"uint256","internalType":"uint256"},{"name":"expiresAt","type":"uint256","internalType":"uint256"},{"name":"documentHash","type":"bytes32","internalType":"bytes32"},{"name":"ipfsCID","type":"string","internalType":"string"},{"name":"revoked","type":"bool","internalType":"bool"},{"name":"revocationReason","type":"string","internalType":"string"}]}],"stateMutability":"view"},{"type":"function","name":"name","inputs":[],"outputs":[{"name":"","type":"string","internalType":"string"}],"stateMutability":"view"},{"type":"function","name":"ownerOf","inputs":[{"name":"tokenId","type":"uint256","internalType":"uint256"}],"outputs":[{"name":"","type":"address","internalType":"address"}],"stateMutability":"view"},{"type":"function","name":"registry","inputs":[],"outputs":[{"name":"","type":"address","internalType":"contract HemaRegistry"}],"stateMutability":"view"},{"type":"function","name":"revokeCertificate","inputs":[{"name":"tokenId","type":"uint256","internalType":"uint256"},{"name":"reason","type":"string","internalType":"string"}],"outputs":[],"stateMutability":"nonpayable"},{"type":"function","name":"safeTransferFrom","inputs":[{"name":"from","type":"address","internalType":"address"},{"name":"to","type":"address","internalType":"address"},{"name":"tokenId","type":"uint256","internalType":"uint256"}],"outputs":[],"stateMutability":"nonpayable"},{"type":"function","name":"safeTransferFrom","inputs":[{"name":"from","type":"address","internalType":"address"},{"name":"to","type":"address","internalType":"address"},{"name":"tokenId","type":"uint256","internalType":"uint256"},{"name":"data","type":"bytes","internalType":"bytes"}],"outputs":[],"stateMutability":"nonpayable"},{"type":"function","name":"setApprovalForAll","inputs":[{"name":"operator","type":"address","internalType":"address"},{"name":"approved","type":"bool","internalType":"bool"}],"outputs":[],"stateMutability":"nonpayable"},{"type":"function","name":"statusOf","inputs":[{"name":"tokenId","type":"uint256","internalType":"uint256"}],"outputs":[{"name":"","type":"uint8","internalType":"enum HemaCertificate.CertStatus"}],"stateMutability":"view"},{"type":"function","name":"supportsInterface","inputs":[{"name":"interfaceId","type":"bytes4","internalType":"bytes4"}],"outputs":[{"name":"","type":"bool","internalType":"bool"}],"stateMutability":"view"},{"type":"function","name":"symbol","inputs":[],"outputs":[{"name":"","type":"string","internalType":"string"}],"stateMutability":"view"},{"type":"function","name":"tokenURI","inputs":[{"name":"tokenId","type":"uint256","internalType":"uint256"}],"outputs":[{"name":"","type":"string","internalType":"string"}],"stateMutability":"view"},{"type":"function","name":"transferFrom","inputs":[{"name":"from","type":"address","internalType":"address"},{"name":"to","type":"address","internalType":"address"},{"name":"tokenId","type":"uint256","internalType":"uint256"}],"outputs":[],"stateMutability":"nonpayable"},{"type":"event","name":"Approval","inputs":[{"name":"owner","type":"address","indexed":true,"internalType":"address"},{"name":"approved","type":"address","indexed":true,"internalType":"address"},{"name":"tokenId","type":"uint256","indexed":true,"internalType":"uint256"}],"anonymous":false},{"type":"event","name":"ApprovalForAll","inputs":[{"name":"owner","type":"address","indexed":true,"internalType":"address"},{"name":"operator","type":"address","indexed":true,"internalType":"address"},{"name":"approved","type":"bool","indexed":false,"internalType":"bool"}],"anonymous":false},{"type":"event","name":"BatchMetadataUpdate","inputs":[{"name":"_fromTokenId","type":"uint256","indexed":false,"internalType":"uint256"},{"name":"_toTokenId","type":"uint256","indexed":false,"internalType":"uint256"}],"anonymous":false},{"type":"event","name":"CertificateIssued","inputs":[{"name":"tokenId","type":"uint256","indexed":true,"internalType":"uint256"},{"name":"subject","type":"address","indexed":true,"internalType":"address"},{"name":"issuer","type":"address","indexed":true,"internalType":"address"},{"name":"certType","type":"uint8","indexed":false,"internalType":"enum HemaCertificate.CertType"},{"name":"expiresAt","type":"uint256","indexed":false,"internalType":"uint256"},{"name":"documentHash","type":"bytes32","indexed":false,"internalType":"bytes32"},{"name":"ipfsCID","type":"string","indexed":false,"internalType":"string"}],"anonymous":false},{"type":"event","name":"CertificateRevoked","inputs":[{"name":"tokenId","type":"uint256","indexed":true,"internalType":"uint256"},{"name":"issuer","type":"address","indexed":true,"internalType":"address"},{"name":"reason","type":"string","indexed":false,"internalType":"string"}],"anonymous":false},{"type":"event","name":"MetadataUpdate","inputs":[{"name":"_tokenId","type":"uint256","indexed":false,"internalType":"uint256"}],"anonymous":false},{"type":"event","name":"Transfer","inputs":[{"name":"from","type":"address","indexed":true,"internalType":"address"},{"name":"to","type":"address","indexed":true,"internalType":"address"},{"name":"tokenId","type":"uint256","indexed":true,"internalType":"uint256"}],"anonymous":false},{"type":"error","name":"AlreadyExpired","inputs":[{"name":"tokenId","type":"uint256","internalType":"uint256"}]},{"type":"error","name":"AlreadyRevoked","inputs":[{"name":"tokenId","type":"uint256","internalType":"uint256"}]},{"type":"error","name":"ERC721IncorrectOwner","inputs":[{"name":"sender","type":"address","internalType":"address"},{"name":"tokenId","type":"uint256","internalType":"uint256"},{"name":"owner","type":"address","internalType":"address"}]},{"type":"error","name":"ERC721InsufficientApproval","inputs":[{"name":"operator","type":"address","internalType":"address"},{"name":"tokenId","type":"uint256","internalType":"uint256"}]},{"type":"error","name":"ERC721InvalidApprover","inputs":[{"name":"approver","type":"address","internalType":"address"}]},{"type":"error","name":"ERC721InvalidOperator","inputs":[{"name":"operator","type":"address","internalType":"address"}]},{"type":"error","name":"ERC721InvalidOwner","inputs":[{"name":"owner","type":"address","internalType":"address"}]},{"type":"error","name":"ERC721InvalidReceiver","inputs":[{"name":"receiver","type":"address","internalType":"address"}]},{"type":"error","name":"ERC721InvalidSender","inputs":[{"name":"sender","type":"address","internalType":"address"}]},{"type":"error","name":"ERC721NonexistentToken","inputs":[{"name":"tokenId","type":"uint256","internalType":"uint256"}]},{"type":"error","name":"EmptyCID","inputs":[]},{"type":"error","name":"EmptyDocumentHash","inputs":[]},{"type":"error","name":"InvalidExpiry","inputs":[{"name":"expiresAt","type":"uint256","internalType":"uint256"},{"name":"nowTs","type":"uint256","internalType":"uint256"}]},{"type":"error","name":"InvalidSubject","inputs":[]},{"type":"error","name":"NotCertificador","inputs":[{"name":"caller","type":"address","internalType":"address"}]},{"type":"error","name":"TokenNotFound","inputs":[{"name":"tokenId","type":"uint256","internalType":"uint256"}]}],"bytecode":{"object":"0x60a0604052600160075534801562000015575f80fd5b5060405162002089380380620020898339810160408190526200003891620000b6565b6040518060400160405280600f81526020016e48656d61436572746966696361746560881b81525060405180604001604052806009815260200168121153504b50d1549560ba1b815250815f908162000092919062000183565b506001620000a1828262000183565b5050506001600160a01b03166080526200024f565b5f60208284031215620000c7575f80fd5b81516001600160a01b0381168114620000de575f80fd5b9392505050565b634e487b7160e01b5f52604160045260245ffd5b600181811c908216806200010e57607f821691505b6020821081036200012d57634e487b7160e01b5f52602260045260245ffd5b50919050565b601f8211156200017e57805f5260205f20601f840160051c810160208510156200015a5750805b601f840160051c820191505b818110156200017b575f815560010162000166565b50505b505050565b81516001600160401b038111156200019f576200019f620000e5565b620001b781620001b08454620000f9565b8462000133565b602080601f831160018114620001ed575f8415620001d55750858301515b5f19600386901b1c1916600185901b17855562000247565b5f85815260208120601f198616915b828110156200021d57888601518255948401946001909101908401620001fc565b50858210156200023b57878501515f19600388901b60f8161c191681555b505060018460011b0185555b505050505050565b608051611e05620002845f395f81816102240152818161067c015281816106ab01528181610ae10152610b100152611e055ff3fe608060405234801561000f575f80fd5b5060043610610111575f3560e01c806370a082311161009e578063ad35efd41161006e578063ad35efd414610261578063b1466d1d14610281578063b88d4fde14610294578063c87b56dd146102a7578063e985e9c5146102ba575f80fd5b806370a082311461020c5780637b1039991461021f57806395d89b4114610246578063a22cb4651461024e575f80fd5b80630ef7cc8e116100e45780630ef7cc8e1461019257806323b872dd146101b257806342842e0e146101c55780634a722f92146101d85780636352211e146101f9575f80fd5b806301ffc9a71461011557806306fdde031461013d578063081812fc14610152578063095ea7b31461017d575b5f80fd5b61012861012336600461164c565b6102cd565b60405190151581526020015b60405180910390f35b6101456102f7565b60405161013491906116b4565b6101656101603660046116c6565b610386565b6040516001600160a01b039091168152602001610134565b61019061018b3660046116f8565b6103ad565b005b6101a56101a03660046116c6565b6103bc565b6040516101349190611748565b6101906101c03660046117e1565b6105cc565b6101906101d33660046117e1565b61065a565b6101eb6101e636600461185f565b610679565b604051908152602001610134565b6101656102073660046116c6565b610a2d565b6101eb61021a3660046118d7565b610a37565b6101657f000000000000000000000000000000000000000000000000000000000000000081565b610145610a7c565b61019061025c3660046118fd565b610a8b565b61027461026f3660046116c6565b610a96565b6040516101349190611932565b61019061028f36600461194c565b610adf565b6101906102a23660046119a8565b610ce0565b6101456102b53660046116c6565b610cf8565b6101286102c8366004611a7d565b610e03565b5f6001600160e01b03198216632483248360e11b14806102f157506102f182610e30565b92915050565b60605f805461030590611aae565b80601f016020809104026020016040519081016040528092919081815260200182805461033190611aae565b801561037c5780601f106103535761010080835404028352916020019161037c565b820191905f5260205f20905b81548152906001019060200180831161035f57829003601f168201915b5050505050905090565b5f61039082610e7f565b505f828152600460205260409020546001600160a01b03166102f1565b6103b8828233610eb7565b5050565b61040d604080516101008101909152805f81526020015f6001600160a01b031681526020015f81526020015f81526020015f8019168152602001606081526020015f15158152602001606081525090565b61041682610ec4565b5f8281526008602052604090819020815161010081019092528054829060ff16600481111561044757610447611720565b600481111561045857610458611720565b8152815461010090046001600160a01b0316602082015260018201546040820152600282015460608201526003820154608082015260048201805460a0909201916104a290611aae565b80601f01602080910402602001604051908101604052809291908181526020018280546104ce90611aae565b80156105195780601f106104f057610100808354040283529160200191610519565b820191905f5260205f20905b8154815290600101906020018083116104fc57829003601f168201915b5050509183525050600582015460ff161515602082015260068201805460409092019161054590611aae565b80601f016020809104026020016040519081016040528092919081815260200182805461057190611aae565b80156105bc5780601f10610593576101008083540402835291602001916105bc565b820191905f5260205f20905b81548152906001019060200180831161059f57829003601f168201915b5050505050815250509050919050565b6001600160a01b0382166105fa57604051633250574960e11b81525f60048201526024015b60405180910390fd5b5f610606838333610efe565b9050836001600160a01b0316816001600160a01b031614610654576040516364283d7b60e01b81526001600160a01b03808616600483015260248201849052821660448201526064016105f1565b50505050565b61067483838360405180602001604052805f815250610ce0565b505050565b5f7f00000000000000000000000000000000000000000000000000000000000000006001600160a01b03166391d148547f00000000000000000000000000000000000000000000000000000000000000006001600160a01b031663313f2fd56040518163ffffffff1660e01b8152600401602060405180830381865afa158015610705573d5f803e3d5ffd5b505050506040513d601f19601f820116820180604052508101906107299190611ae6565b6040516001600160e01b031960e084901b1681526004810191909152336024820152604401602060405180830381865afa158015610769573d5f803e3d5ffd5b505050506040513d601f19601f8201168201806040525081019061078d9190611afd565b6107ac57604051635b98a32b60e01b81523360048201526024016105f1565b6001600160a01b0387166107d35760405163d5be818f60e01b815260040160405180910390fd5b4285116107fc57604051632384680160e11b8152600481018690524260248201526044016105f1565b8361081a57604051632218812360e01b815260040160405180910390fd5b5f82900361083b5760405163063ee91d60e41b815260040160405180910390fd5b60078054905f61084a83611b18565b91905055905061085a8782610ff0565b610885818484604051602001610871929190611b3c565b604051602081830303815290604052611009565b6040518061010001604052808760048111156108a3576108a3611720565b8152602001336001600160a01b0316815260200142815260200186815260200185815260200184848080601f0160208091040260200160405190810160405280939291908181526020018383808284375f920182905250938552505050602080830182905260408051808301825283815293810193909352848252600890522081518154829060ff1916600183600481111561094157610941611720565b0217905550602082015181546001600160a01b0390911661010002610100600160a81b031990911617815560408201516001820155606082015160028201556080820151600382015560a0820151600482019061099e9082611ba2565b5060c082015160058201805460ff191691151591909117905560e082015160068201906109cb9082611ba2565b50905050336001600160a01b0316876001600160a01b0316827f2297d1c41a760a22eb277a027c688b0300273fed10edb029f8230dfd34f3895c8989898989604051610a1b959493929190611c86565b60405180910390a49695505050505050565b5f6102f182610e7f565b5f6001600160a01b038216610a61576040516322718ad960e21b81525f60048201526024016105f1565b506001600160a01b03165f9081526003602052604090205490565b60606001805461030590611aae565b6103b8338383611058565b5f610aa082610ec4565b5f828152600860205260409020600581015460ff1615610ac35750600292915050565b80600201544210610ad75750600192915050565b505f92915050565b7f00000000000000000000000000000000000000000000000000000000000000006001600160a01b03166391d148547f00000000000000000000000000000000000000000000000000000000000000006001600160a01b031663313f2fd56040518163ffffffff1660e01b8152600401602060405180830381865afa158015610b6a573d5f803e3d5ffd5b505050506040513d601f19601f82011682018060405250810190610b8e9190611ae6565b6040516001600160e01b031960e084901b1681526004810191909152336024820152604401602060405180830381865afa158015610bce573d5f803e3d5ffd5b505050506040513d601f19601f82011682018060405250810190610bf29190611afd565b610c1157604051635b98a32b60e01b81523360048201526024016105f1565b610c1a83610ec4565b5f838152600860205260409020600581015460ff1615610c505760405163e80455f560e01b8152600481018590526024016105f1565b80600201544210610c7757604051633b46d7c960e11b8152600481018590526024016105f1565b60058101805460ff1916600117905560068101610c95838583611cbd565b50336001600160a01b0316847fe30209e229ea01f995092aa4cd5d70b4cd972c12645ab69fa4884bd9882f778f8585604051610cd2929190611d77565b60405180910390a350505050565b610ceb8484846105cc565b61065433858585856110f6565b6060610d0382610e7f565b505f8281526006602052604081208054610d1c90611aae565b80601f0160208091040260200160405190810160405280929190818152602001828054610d4890611aae565b8015610d935780601f10610d6a57610100808354040283529160200191610d93565b820191905f5260205f20905b815481529060010190602001808311610d7657829003601f168201915b505050505090505f610daf60408051602081019091525f815290565b905080515f03610dc0575092915050565b815115610df2578082604051602001610dda929190611d8a565b60405160208183030381529060405292505050919050565b610dfb8461121e565b949350505050565b6001600160a01b039182165f90815260056020908152604080832093909416825291909152205460ff1690565b5f6001600160e01b031982166380ac58cd60e01b1480610e6057506001600160e01b03198216635b5e139f60e01b145b806102f157506301ffc9a760e01b6001600160e01b03198316146102f1565b5f818152600260205260408120546001600160a01b0316806102f157604051637e27328960e01b8152600481018490526024016105f1565b610674838383600161128f565b5f818152600260205260409020546001600160a01b0316610efb576040516306caeb1360e41b8152600481018290526024016105f1565b50565b5f828152600260205260408120546001600160a01b0390811690831615610f2a57610f2a818486611393565b6001600160a01b03811615610f6457610f455f855f8061128f565b6001600160a01b0381165f90815260036020526040902080545f190190555b6001600160a01b03851615610f92576001600160a01b0385165f908152600360205260409020805460010190555b5f8481526002602052604080822080546001600160a01b0319166001600160a01b0389811691821790925591518793918516917fddf252ad1be2c89b69c2b068fc378daa952ba7f163c4a11628f55a4df523b3ef91a4949350505050565b6103b8828260405180602001604052805f8152506113f7565b5f8281526006602052604090206110208282611ba2565b506040518281527ff8e1a15aba9398e019f0b49df1a4fde98ee17ae345cb5f6b5e2c27f5033e8ce79060200160405180910390a15050565b6001600160a01b03821661108a57604051630b61174360e31b81526001600160a01b03831660048201526024016105f1565b6001600160a01b038381165f81815260056020908152604080832094871680845294825291829020805460ff191686151590811790915591519182527f17307eab39ab6107e8899845ad3d59bd9653f200f220920489ca2b5937696c31910160405180910390a3505050565b6001600160a01b0383163b1561121757604051630a85bd0160e11b81526001600160a01b0384169063150b7a0290611138908890889087908790600401611db8565b6020604051808303815f875af1925050508015611172575060408051601f3d908101601f1916820190925261116f91810190611dea565b60015b6111d9573d80801561119f576040519150601f19603f3d011682016040523d82523d5f602084013e6111a4565b606091505b5080515f036111d157604051633250574960e11b81526001600160a01b03851660048201526024016105f1565b805181602001fd5b6001600160e01b03198116630a85bd0160e11b1461121557604051633250574960e11b81526001600160a01b03851660048201526024016105f1565b505b5050505050565b606061122982610e7f565b505f61123f60408051602081019091525f815290565b90505f81511161125d5760405180602001604052805f815250611288565b806112678461140e565b604051602001611278929190611d8a565b6040516020818303038152906040525b9392505050565b80806112a357506001600160a01b03821615155b15611364575f6112b284610e7f565b90506001600160a01b038316158015906112de5750826001600160a01b0316816001600160a01b031614155b80156112f157506112ef8184610e03565b155b1561131a5760405163a9fbf51f60e01b81526001600160a01b03841660048201526024016105f1565b81156113625783856001600160a01b0316826001600160a01b03167f8c5be1e5ebec7d5bd14f71427d1e84f3dd0314c0f7b2291e5b200ac8c7c3b92560405160405180910390a45b505b50505f90815260046020526040902080546001600160a01b0319166001600160a01b0392909216919091179055565b61139e83838361149e565b610674576001600160a01b0383166113cc57604051637e27328960e01b8152600481018290526024016105f1565b60405163177e802f60e01b81526001600160a01b0383166004820152602481018290526044016105f1565b61140183836114ff565b610674335f8585856110f6565b60605f61141a83611560565b60010190505f8167ffffffffffffffff81111561143957611439611994565b6040519080825280601f01601f191660200182016040528015611463576020820181803683370190505b5090508181016020015b5f19016f181899199a1a9b1b9c1cb0b131b232b360811b600a86061a8153600a850494508461146d57509392505050565b5f6001600160a01b03831615801590610dfb5750826001600160a01b0316846001600160a01b031614806114d757506114d78484610e03565b80610dfb5750505f908152600460205260409020546001600160a01b03908116911614919050565b6001600160a01b03821661152857604051633250574960e11b81525f60048201526024016105f1565b5f61153483835f610efe565b90506001600160a01b03811615610674576040516339e3563760e11b81525f60048201526024016105f1565b5f8072184f03e93ff9f4daa797ed6e38ed64bf6a1f0160401b831061159e5772184f03e93ff9f4daa797ed6e38ed64bf6a1f0160401b830492506040015b6d04ee2d6d415b85acef810000000083106115ca576d04ee2d6d415b85acef8100000000830492506020015b662386f26fc1000083106115e857662386f26fc10000830492506010015b6305f5e1008310611600576305f5e100830492506008015b612710831061161457612710830492506004015b60648310611626576064830492506002015b600a83106102f15760010192915050565b6001600160e01b031981168114610efb575f80fd5b5f6020828403121561165c575f80fd5b813561128881611637565b5f5b83811015611681578181015183820152602001611669565b50505f910152565b5f81518084526116a0816020860160208601611667565b601f01601f19169290920160200192915050565b602081525f6112886020830184611689565b5f602082840312156116d6575f80fd5b5035919050565b80356001600160a01b03811681146116f3575f80fd5b919050565b5f8060408385031215611709575f80fd5b611712836116dd565b946020939093013593505050565b634e487b7160e01b5f52602160045260245ffd5b6005811061174457611744611720565b9052565b6020815261175a602082018351611734565b60018060a01b0360208301511660408201526040820151606082015260608201516080820152608082015160a08201525f60a08301516101008060c08501526117a7610120850183611689565b915060c08501516117bc60e086018215159052565b5060e0850151848303601f1901828601526117d78382611689565b9695505050505050565b5f805f606084860312156117f3575f80fd5b6117fc846116dd565b925061180a602085016116dd565b9150604084013590509250925092565b5f8083601f84011261182a575f80fd5b50813567ffffffffffffffff811115611841575f80fd5b602083019150836020828501011115611858575f80fd5b9250929050565b5f805f805f8060a08789031215611874575f80fd5b61187d876116dd565b9550602087013560058110611890575f80fd5b94506040870135935060608701359250608087013567ffffffffffffffff8111156118b9575f80fd5b6118c589828a0161181a565b979a9699509497509295939492505050565b5f602082840312156118e7575f80fd5b611288826116dd565b8015158114610efb575f80fd5b5f806040838503121561190e575f80fd5b611917836116dd565b91506020830135611927816118f0565b809150509250929050565b602081016003831061194657611946611720565b91905290565b5f805f6040848603121561195e575f80fd5b83359250602084013567ffffffffffffffff81111561197b575f80fd5b6119878682870161181a565b9497909650939450505050565b634e487b7160e01b5f52604160045260245ffd5b5f805f80608085870312156119bb575f80fd5b6119c4856116dd565b93506119d2602086016116dd565b925060408501359150606085013567ffffffffffffffff808211156119f5575f80fd5b818701915087601f830112611a08575f80fd5b813581811115611a1a57611a1a611994565b604051601f8201601f19908116603f01168101908382118183101715611a4257611a42611994565b816040528281528a6020848701011115611a5a575f80fd5b826020860160208301375f60208483010152809550505050505092959194509250565b5f8060408385031215611a8e575f80fd5b611a97836116dd565b9150611aa5602084016116dd565b90509250929050565b600181811c90821680611ac257607f821691505b602082108103611ae057634e487b7160e01b5f52602260045260245ffd5b50919050565b5f60208284031215611af6575f80fd5b5051919050565b5f60208284031215611b0d575f80fd5b8151611288816118f0565b5f60018201611b3557634e487b7160e01b5f52601160045260245ffd5b5060010190565b66697066733a2f2f60c81b8152818360078301375f9101600701908152919050565b601f82111561067457805f5260205f20601f840160051c81016020851015611b835750805b601f840160051c820191505b81811015611217575f8155600101611b8f565b815167ffffffffffffffff811115611bbc57611bbc611994565b611bd081611bca8454611aae565b84611b5e565b602080601f831160018114611c03575f8415611bec5750858301515b5f19600386901b1c1916600185901b178555611215565b5f85815260208120601f198616915b82811015611c3157888601518255948401946001909101908401611c12565b5085821015611c4e57878501515f19600388901b60f8161c191681555b5050505050600190811b01905550565b81835281816020850137505f828201602090810191909152601f909101601f19169091010190565b611c908187611734565b846020820152836040820152608060608201525f611cb2608083018486611c5e565b979650505050505050565b67ffffffffffffffff831115611cd557611cd5611994565b611ce983611ce38354611aae565b83611b5e565b5f601f841160018114611d1a575f8515611d035750838201355b5f19600387901b1c1916600186901b178355611217565b5f83815260208120601f198716915b82811015611d495786850135825560209485019460019092019101611d29565b5086821015611d65575f1960f88860031b161c19848701351681555b505060018560011b0183555050505050565b602081525f610dfb602083018486611c5e565b5f8351611d9b818460208801611667565b835190830190611daf818360208801611667565b01949350505050565b6001600160a01b03858116825284166020820152604081018390526080606082018190525f906117d790830184611689565b5f60208284031215611dfa575f80fd5b81516112888161163756","linkReferences":{}},"methodIdentifiers":{"approve(address,uint256)":"095ea7b3","balanceOf(address)":"70a08231","getApproved(uint256)":"081812fc","isApprovedForAll(address,address)":"e985e9c5","issueCertificate(address,uint8,uint256,bytes32,string)":"4a722f92","metadataOf(uint256)":"0ef7cc8e","name()":"06fdde03","ownerOf(uint256)":"6352211e","registry()":"7b103999","revokeCertificate(uint256,string)":"b1466d1d","safeTransferFrom(address,address,uint256)":"42842e0e","safeTransferFrom(address,address,uint256,bytes)":"b88d4fde","setApprovalForAll(address,bool)":"a22cb465","statusOf(uint256)":"ad35efd4","supportsInterface(bytes4)":"01ffc9a7","symbol()":"95d89b41","tokenURI(uint256)":"c87b56dd","transferFrom(address,address,uint256)":"23b872dd"},"id":45}