{"abi":[{"type":"constructor","inputs":[{"name":"registry_","type":"address","internalType":"address"}],"stateMutability":"nonpayable"},{"type":"function","name":"crossMatch","inputs":[{"name":"componentId","type":"uint256","internalType":"uint256"},{"name":"patientHash","type":"bytes32","internalType":"bytes32"}],"outputs":[],"stateMutability":"nonpayable"},{"type":"function","name":"getComponent","inputs":[{"name":"componentId","type":"uint256","internalType":"uint256"}],"outputs":[{"name":"","type":"tuple","internalType":"struct HemaTraceability.Component","components":[{"name":"id","type":"uint256","internalType":"uint256"},{"name":"parentUnitId","type":"uint256","internalType":"uint256"},{"name":"componentType","type":"uint8","internalType":"enum Codes.ComponentType"},{"name":"volumeMl","type":"uint16","internalType":"uint16"},{"name":"producedAt","type":"uint256","internalType":"uint256"},{"name":"processor","type":"address","internalType":"address"},{"name":"status","type":"uint8","internalType":"enum HemaTraceability.ComponentStatus"},{"name":"expiresAt","type":"uint256","internalType":"uint256"},{"name":"custodian","type":"address","internalType":"address"}]}],"stateMutability":"view"},{"type":"function","name":"getComponentsByUnit","inputs":[{"name":"unitId","type":"uint256","internalType":"uint256"}],"outputs":[{"name":"","type":"uint256[]","internalType":"uint256[]"}],"stateMutability":"view"},{"type":"function","name":"getTestResult","inputs":[{"name":"unitId","type":"uint256","internalType":"uint256"}],"outputs":[{"name":"","type":"tuple","internalType":"struct HemaTraceability.TestResult","components":[{"name":"unitId","type":"uint256","internalType":"uint256"},{"name":"lab","type":"address","internalType":"address"},{"name":"performedAt","type":"uint256","internalType":"uint256"},{"name":"hiv","type":"bool","internalType":"bool"},{"name":"hbv","type":"bool","internalType":"bool"},{"name":"hcv","type":"bool","internalType":"bool"},{"name":"syphilis","type":"bool","internalType":"bool"},{"name":"htlv","type":"bool","internalType":"bool"},{"name":"chagas","type":"bool","internalType":"bool"},{"name":"aboConfirmed","type":"bytes8","internalType":"bytes8"},{"name":"releaseStatus","type":"uint8","internalType":"enum HemaTraceability.ReleaseStatus"}]}],"stateMutability":"view"},{"type":"function","name":"getUnit","inputs":[{"name":"unitId","type":"uint256","internalType":"uint256"}],"outputs":[{"name":"","type":"tuple","internalType":"struct HemaTraceability.DonationUnit","components":[{"name":"id","type":"uint256","internalType":"uint256"},{"name":"donorIdHash","type":"bytes32","internalType":"bytes32"},{"name":"collectedAt","type":"uint256","internalType":"uint256"},{"name":"volumeMl","type":"uint16","internalType":"uint16"},{"name":"aboRhCode","type":"bytes8","internalType":"bytes8"},{"name":"collectionCenter","type":"address","internalType":"address"},{"name":"custodian","type":"address","internalType":"address"},{"name":"status","type":"uint8","internalType":"enum HemaTraceability.UnitStatus"}]}],"stateMutability":"view"},{"type":"function","name":"getUnitsByDonor","inputs":[{"name":"donorIdHash","type":"bytes32","internalType":"bytes32"}],"outputs":[{"name":"","type":"uint256[]","internalType":"uint256[]"}],"stateMutability":"view"},{"type":"function","name":"hasTestResult","inputs":[{"name":"unitId","type":"uint256","internalType":"uint256"}],"outputs":[{"name":"","type":"bool","internalType":"bool"}],"stateMutability":"view"},{"type":"function","name":"produceComponent","inputs":[{"name":"parentUnitId","type":"uint256","internalType":"uint256"},{"name":"componentType","type":"uint8","internalType":"enum Codes.ComponentType"},{"name":"volumeMl","type":"uint16","internalType":"uint16"}],"outputs":[{"name":"componentId","type":"uint256","internalType":"uint256"}],"stateMutability":"nonpayable"},{"type":"function","name":"quarantineUnit","inputs":[{"name":"unitId","type":"uint256","internalType":"uint256"},{"name":"reason","type":"string","internalType":"string"}],"outputs":[],"stateMutability":"nonpayable"},{"type":"function","name":"recordTestResult","inputs":[{"name":"unitId","type":"uint256","internalType":"uint256"},{"name":"hiv","type":"bool","internalType":"bool"},{"name":"hbv","type":"bool","internalType":"bool"},{"name":"hcv","type":"bool","internalType":"bool"},{"name":"syphilis","type":"bool","internalType":"bool"},{"name":"htlv","type":"bool","internalType":"bool"},{"name":"chagas","type":"bool","internalType":"bool"},{"name":"aboConfirmed","type":"bytes8","internalType":"bytes8"}],"outputs":[],"stateMutability":"nonpayable"},{"type":"function","name":"recordTransfusion","inputs":[{"name":"componentId","type":"uint256","internalType":"uint256"}],"outputs":[],"stateMutability":"nonpayable"},{"type":"function","name":"registerDonation","inputs":[{"name":"donorIdHash","type":"bytes32","internalType":"bytes32"},{"name":"volumeMl","type":"uint16","internalType":"uint16"},{"name":"aboRhCode","type":"bytes8","internalType":"bytes8"}],"outputs":[{"name":"unitId","type":"uint256","internalType":"uint256"}],"stateMutability":"nonpayable"},{"type":"function","name":"registry","inputs":[],"outputs":[{"name":"","type":"address","internalType":"contract HemaRegistry"}],"stateMutability":"view"},{"type":"function","name":"releaseUnit","inputs":[{"name":"unitId","type":"uint256","internalType":"uint256"}],"outputs":[],"stateMutability":"nonpayable"},{"type":"function","name":"reportAdverseEvent","inputs":[{"name":"kind","type":"uint8","internalType":"enum HemaTraceability.AdverseKind"},{"name":"triggerHash","type":"bytes32","internalType":"bytes32"}],"outputs":[{"name":"eventId","type":"uint256","internalType":"uint256"},{"name":"affected","type":"uint256[]","internalType":"uint256[]"}],"stateMutability":"nonpayable"},{"type":"function","name":"splitVolumeOf","inputs":[{"name":"unitId","type":"uint256","internalType":"uint256"}],"outputs":[{"name":"","type":"uint16","internalType":"uint16"}],"stateMutability":"view"},{"type":"function","name":"transferComponentCustody","inputs":[{"name":"componentId","type":"uint256","internalType":"uint256"},{"name":"to","type":"address","internalType":"address"},{"name":"temperatureC","type":"int16","internalType":"int16"},{"name":"gpsHash","type":"bytes32","internalType":"bytes32"},{"name":"signedHandoffHash","type":"bytes32","internalType":"bytes32"}],"outputs":[],"stateMutability":"nonpayable"},{"type":"event","name":"AdverseEventReported","inputs":[{"name":"eventId","type":"uint256","indexed":true,"internalType":"uint256"},{"name":"kind","type":"uint8","indexed":false,"internalType":"enum HemaTraceability.AdverseKind"},{"name":"triggerHash","type":"bytes32","indexed":true,"internalType":"bytes32"},{"name":"affectedCount","type":"uint256","indexed":false,"internalType":"uint256"}],"anonymous":false},{"type":"event","name":"ComponentCrossMatched","inputs":[{"name":"componentId","type":"uint256","indexed":true,"internalType":"uint256"},{"name":"patientHash","type":"bytes32","indexed":true,"internalType":"bytes32"}],"anonymous":false},{"type":"event","name":"ComponentCustodyTransferred","inputs":[{"name":"componentId","type":"uint256","indexed":true,"internalType":"uint256"},{"name":"from","type":"address","indexed":true,"internalType":"address"},{"name":"to","type":"address","indexed":true,"internalType":"address"},{"name":"temperatureC","type":"int16","indexed":false,"internalType":"int16"},{"name":"gpsHash","type":"bytes32","indexed":false,"internalType":"bytes32"},{"name":"signedHandoffHash","type":"bytes32","indexed":false,"internalType":"bytes32"}],"anonymous":false},{"type":"event","name":"ComponentProduced","inputs":[{"name":"componentId","type":"uint256","indexed":true,"internalType":"uint256"},{"name":"parentUnitId","type":"uint256","indexed":true,"internalType":"uint256"},{"name":"ctype","type":"uint8","indexed":false,"internalType":"enum Codes.ComponentType"},{"name":"volumeMl","type":"uint16","indexed":false,"internalType":"uint16"},{"name":"expiresAt","type":"uint256","indexed":false,"internalType":"uint256"}],"anonymous":false},{"type":"event","name":"ComponentRecalled","inputs":[{"name":"componentId","type":"uint256","indexed":true,"internalType":"uint256"},{"name":"reason","type":"string","indexed":false,"internalType":"string"}],"anonymous":false},{"type":"event","name":"DonationCollected","inputs":[{"name":"unitId","type":"uint256","indexed":true,"internalType":"uint256"},{"name":"donorIdHash","type":"bytes32","indexed":true,"internalType":"bytes32"},{"name":"bank","type":"address","indexed":true,"internalType":"address"},{"name":"volumeMl","type":"uint16","indexed":false,"internalType":"uint16"}],"anonymous":false},{"type":"event","name":"LookBackTriggered","inputs":[{"name":"donorIdHash","type":"bytes32","indexed":true,"internalType":"bytes32"},{"name":"recalledComponentIds","type":"uint256[]","indexed":false,"internalType":"uint256[]"}],"anonymous":false},{"type":"event","name":"TestResultRecorded","inputs":[{"name":"unitId","type":"uint256","indexed":true,"internalType":"uint256"},{"name":"lab","type":"address","indexed":true,"internalType":"address"},{"name":"anyPositive","type":"bool","indexed":false,"internalType":"bool"}],"anonymous":false},{"type":"event","name":"Transfused","inputs":[{"name":"componentId","type":"uint256","indexed":true,"internalType":"uint256"},{"name":"hospital","type":"address","indexed":true,"internalType":"address"}],"anonymous":false},{"type":"event","name":"UnitQuarantined","inputs":[{"name":"unitId","type":"uint256","indexed":true,"internalType":"uint256"},{"name":"lab","type":"address","indexed":true,"internalType":"address"},{"name":"reason","type":"string","indexed":false,"internalType":"string"}],"anonymous":false},{"type":"event","name":"UnitRecalled","inputs":[{"name":"unitId","type":"uint256","indexed":true,"internalType":"uint256"},{"name":"reason","type":"string","indexed":false,"internalType":"string"}],"anonymous":false},{"type":"event","name":"UnitReleased","inputs":[{"name":"unitId","type":"uint256","indexed":true,"internalType":"uint256"},{"name":"lab","type":"address","indexed":true,"internalType":"address"}],"anonymous":false},{"type":"error","name":"ComponentExpired","inputs":[{"name":"componentId","type":"uint256","internalType":"uint256"},{"name":"expiresAt","type":"uint256","internalType":"uint256"}]},{"type":"error","name":"ComponentNotFound","inputs":[{"name":"componentId","type":"uint256","internalType":"uint256"}]},{"type":"error","name":"InactiveActor","inputs":[{"name":"actor","type":"address","internalType":"address"}]},{"type":"error","name":"InvalidAboRh","inputs":[{"name":"code","type":"bytes8","internalType":"bytes8"}]},{"type":"error","name":"InvalidComponentState","inputs":[{"name":"componentId","type":"uint256","internalType":"uint256"},{"name":"current","type":"uint8","internalType":"enum HemaTraceability.ComponentStatus"}]},{"type":"error","name":"InvalidComponentType","inputs":[]},{"type":"error","name":"InvalidUnitState","inputs":[{"name":"unitId","type":"uint256","internalType":"uint256"},{"name":"current","type":"uint8","internalType":"enum HemaTraceability.UnitStatus"}]},{"type":"error","name":"InvalidVolume","inputs":[]},{"type":"error","name":"NotAuthorized","inputs":[{"name":"caller","type":"address","internalType":"address"},{"name":"expectedRole","type":"bytes32","internalType":"bytes32"}]},{"type":"error","name":"NotCurrentCustodian","inputs":[{"name":"caller","type":"address","internalType":"address"},{"name":"custodian","type":"address","internalType":"address"}]},{"type":"error","name":"PositiveScreening","inputs":[{"name":"unitId","type":"uint256","internalType":"uint256"}]},{"type":"error","name":"TestAlreadyRecorded","inputs":[{"name":"unitId","type":"uint256","internalType":"uint256"}]},{"type":"error","name":"TestNotRecorded","inputs":[{"name":"unitId","type":"uint256","internalType":"uint256"}]},{"type":"error","name":"UnitNotFound","inputs":[{"name":"unitId","type":"uint256","internalType":"uint256"}]},{"type":"error","name":"UnknownComponentType","inputs":[]},{"type":"error","name":"VolumeExceedsParent","inputs":[{"name":"unitId","type":"uint256","internalType":"uint256"},{"name":"requested","type":"uint16","internalType":"uint16"},{"name":"available","type":"uint16","internalType":"uint16"}]}],"bytecode":{"object":"0x60a060405260015f556001805560016002553480156200001d575f80fd5b50604051620031c1380380620031c1833981016040819052620000409162000052565b6001600160a01b031660805262000081565b5f6020828403121562000063575f80fd5b81516001600160a01b03811681146200007a575f80fd5b9392505050565b6080516130a9620001185f395f818161024f01528181610318015281816103b2015281816106d40152818161076e01528181610a6a01528181610b0401528181610ce401528181610d7e0152818161109c015281816111c10152818161147a015281816115140152818161184f015281816118e901528181611ce001528181611d7a015281816121e2015261227c01526130a95ff3fe608060405234801561000f575f80fd5b5060043610610106575f3560e01c806355ebd6581161009e578063baac12171161006e578063baac12171461029c578063e0b3271f146102af578063f1bfed97146102cf578063fa440133146102e2578063faec654d14610303575f80fd5b806355ebd658146102015780636035453a146102145780637b1039991461024a578063b8c4fd2d14610289575f80fd5b806336d63af6116100d957806336d63af6146101895780633f7bdf54146101bb578063407ed2db146101ce5780634f27da18146101e1575f80fd5b806315dab7a81461010a5780631655bfbe1461011f5780631d3655491461014857806333cb117a14610169575b5f80fd5b61011d610118366004612a11565b610316565b005b61013261012d366004612a31565b6105cb565b60405161013f9190612a70565b60405180910390f35b61015b610156366004612b1d565b6106d1565b60405190815260200161013f565b61017c610177366004612a31565b610a09565b60405161013f9190612b90565b6101ab610197366004612a31565b5f9081526006602052604090205460ff1690565b604051901515815260200161013f565b61011d6101c9366004612a31565b610a68565b61011d6101dc366004612ba2565b610ce2565b6101f46101ef366004612a31565b610f98565b60405161013f9190612c37565b61011d61020f366004612cca565b611087565b610237610222366004612a31565b5f9081526009602052604090205461ffff1690565b60405161ffff909116815260200161013f565b6102717f000000000000000000000000000000000000000000000000000000000000000081565b6040516001600160a01b03909116815260200161013f565b61017c610297366004612a31565b61141b565b61011d6102aa366004612a31565b611478565b6102c26102bd366004612a31565b6116f9565b60405161013f9190612d45565b61011d6102dd366004612e1a565b61184d565b6102f56102f0366004612eb1565b611cdb565b60405161013f929190612ede565b61015b610311366004612efe565b6121df565b7f00000000000000000000000000000000000000000000000000000000000000006001600160a01b0316637cedcb5a6040518163ffffffff1660e01b8152600401602060405180830381865afa158015610372573d5f803e3d5ffd5b505050506040513d601f19601f820116820180604052508101906103969190612f33565b604051632474521560e21b8152600481018290523360248201527f00000000000000000000000000000000000000000000000000000000000000006001600160a01b0316906391d1485490604401602060405180830381865afa1580156103ff573d5f803e3d5ffd5b505050506040513d601f19601f820116820180604052508101906104239190612f4a565b61044e57604051635270d4bf60e11b8152336004820152602481018290526044015b60405180910390fd5b5f838152600460205260408120805490910361048057604051634915061960e11b815260048101859052602401610445565b60056004820154600160a01b900460ff1660058111156104a2576104a2612a48565b036104d1576004818101546040516308da0bc360e21b8152610445928792600160a01b900460ff169101612f65565b806005015442106105055760058101546040516371202de360e01b8152610445918691600401918252602082015260400190565b60016004820154600160a01b900460ff16600581111561052757610527612a48565b14158015610555575060026004820154600160a01b900460ff16600581111561055257610552612a48565b14155b15610584576004818101546040516308da0bc360e21b8152610445928792600160a01b900460ff169101612f65565b60048101805460ff60a01b1916600360a01b179055604051839085907f53e23175b8519d549cb8d245b78801eec82721419107d93b1f3d7a0e9ac2e2ae905f90a350505050565b61060f60408051610100810182525f80825260208201819052918101829052606081018290526080810182905260a0810182905260c081018290529060e082015290565b5f82815260036020818152604092839020835161010081018552815481526001820154928101929092526002810154938201939093529082015461ffff811660608301526001600160c01b031962010000820460c090811b9190911660808401526001600160a01b03600160501b909204821660a084015260048401549182169083015290919060e083019060ff600160a01b9091041660068111156106b7576106b7612a48565b60068111156106c8576106c8612a48565b90525092915050565b5f7f00000000000000000000000000000000000000000000000000000000000000006001600160a01b03166341f3de186040518163ffffffff1660e01b8152600401602060405180830381865afa15801561072e573d5f803e3d5ffd5b505050506040513d601f19601f820116820180604052508101906107529190612f33565b604051632474521560e21b8152600481018290523360248201527f00000000000000000000000000000000000000000000000000000000000000006001600160a01b0316906391d1485490604401602060405180830381865afa1580156107bb573d5f803e3d5ffd5b505050506040513d601f19601f820116820180604052508101906107df9190612f4a565b61080557604051635270d4bf60e11b815233600482015260248101829052604401610445565b8361ffff165f03610829576040516306b8599560e21b815260040160405180910390fd5b610832836126c1565b61085b576040516316d10f6d60e31b81526001600160c01b031984166004820152602401610445565b5f8054908061086983612f8d565b90915550604080516101008101825282815260208101889052429181019190915261ffff861660608201526001600160c01b0319851660808201523360a0820181905260c082015290925060e08101600190525f838152600360208181526040928390208451815590840151600182015591830151600283015560608301519082018054608085015160a086015161ffff90941669ffffffffffffffffffff19909216919091176201000060c092831c02177fffff0000000000000000000000000000000000000000ffffffffffffffffffff16600160501b6001600160a01b0394851602179091558301516004830180546001600160a01b0319811692909316918217815560e08501519290916001600160a81b031990911617600160a01b83600681111561099b5761099b612a48565b021790555050505f858152600760209081526040808320805460018101825590845292829020909201849055905161ffff861681523391879185917fe9de4e65ddc1afbb848edc5a957298e4e90292cdb93316558584fcc900af5e8e910160405180910390a4509392505050565b5f81815260086020908152604091829020805483518184028101840190945280845260609392830182828015610a5c57602002820191905f5260205f20905b815481526020019060010190808311610a48575b50505050509050919050565b7f00000000000000000000000000000000000000000000000000000000000000006001600160a01b0316635bb65d326040518163ffffffff1660e01b8152600401602060405180830381865afa158015610ac4573d5f803e3d5ffd5b505050506040513d601f19601f82011682018060405250810190610ae89190612f33565b604051632474521560e21b8152600481018290523360248201527f00000000000000000000000000000000000000000000000000000000000000006001600160a01b0316906391d1485490604401602060405180830381865afa158015610b51573d5f803e3d5ffd5b505050506040513d601f19601f82011682018060405250810190610b759190612f4a565b610b9b57604051635270d4bf60e11b815233600482015260248101829052604401610445565b5f8281526003602052604081208054909103610bcd57604051633237507b60e01b815260048101849052602401610445565b5f8381526006602052604090205460ff16610bfe5760405163a7ab6eb160e01b815260048101849052602401610445565b60026004820154600160a01b900460ff166006811115610c2057610c20612a48565b14610c4f57600481810154604051632b3f37f560e11b8152610445928692600160a01b900460ff169101612fa5565b5f838152600560205260409020610c658161278b565b15610c86576040516326a631bd60e11b815260048101859052602401610445565b60038101805460ff60701b1916600160701b17905560048201805460ff60a01b1916600160a21b179055604051339085907f2018bd15e3ab28abf2a31df4275661eb9535208d048696c48201edd464653a1a905f90a350505050565b7f00000000000000000000000000000000000000000000000000000000000000006001600160a01b0316635bb65d326040518163ffffffff1660e01b8152600401602060405180830381865afa158015610d3e573d5f803e3d5ffd5b505050506040513d601f19601f82011682018060405250810190610d629190612f33565b604051632474521560e21b8152600481018290523360248201527f00000000000000000000000000000000000000000000000000000000000000006001600160a01b0316906391d1485490604401602060405180830381865afa158015610dcb573d5f803e3d5ffd5b505050506040513d601f19601f82011682018060405250810190610def9190612f4a565b610e1557604051635270d4bf60e11b815233600482015260248101829052604401610445565b5f8481526003602052604081208054909103610e4757604051633237507b60e01b815260048101869052602401610445565b5f8581526006602052604090205460ff16610e785760405163a7ab6eb160e01b815260048101869052602401610445565b600480820154600160a01b900460ff166006811115610e9957610e99612a48565b1480610ec4575060056004820154600160a01b900460ff166006811115610ec257610ec2612a48565b145b80610eee575060036004820154600160a01b900460ff166006811115610eec57610eec612a48565b145b15610f1d57600481810154604051632b3f37f560e11b8152610445928892600160a01b900460ff169101612fa5565b5f8581526005602052604090819020600301805460ff60701b1916600160711b17905560048201805460ff60a01b1916600360a01b17905551339086907fe6778c26181850b2b6371b1041da78726c005da713ad2ed1f2cf2bcd31b1544190610f899088908890612fb9565b60405180910390a35050505050565b610fa06129b8565b5f82815260046020818152604092839020835161012081018552815481526001820154928101929092526002810154919390929084019160ff1690811115610fea57610fea612a48565b6004811115610ffb57610ffb612a48565b81526002820154610100900461ffff1660208201526003820154604082015260048201546001600160a01b0381166060830152608090910190600160a01b900460ff16600581111561104f5761104f612a48565b600581111561106057611060612a48565b8152600582015460208201526006909101546001600160a01b031660409091015292915050565b604051639f8a13d760e01b81523360048201527f00000000000000000000000000000000000000000000000000000000000000006001600160a01b031690639f8a13d790602401602060405180830381865afa1580156110e9573d5f803e3d5ffd5b505050506040513d601f19601f8201168201806040525081019061110d9190612f4a565b61112c57604051630b3c9a6b60e31b8152336004820152602401610445565b5f858152600460205260408120805490910361115e57604051634915061960e11b815260048101879052602401610445565b60068101546001600160a01b031633146111a257600681015460405163fade533b60e01b81523360048201526001600160a01b039091166024820152604401610445565b604051639f8a13d760e01b81526001600160a01b0386811660048301527f00000000000000000000000000000000000000000000000000000000000000001690639f8a13d790602401602060405180830381865afa158015611206573d5f803e3d5ffd5b505050506040513d601f19601f8201168201806040525081019061122a9190612f4a565b61125257604051630b3c9a6b60e31b81526001600160a01b0386166004820152602401610445565b60056004820154600160a01b900460ff16600581111561127457611274612a48565b148061129e5750600480820154600160a01b900460ff16600581111561129c5761129c612a48565b145b156112cd576004818101546040516308da0bc360e21b8152610445928992600160a01b900460ff169101612f65565b60408051600186900b8152602081018590529081018390526001600160a01b03861690339088907f141152fc87c15c7846afe695e4d32daf797dcab668f27f9433685f910535c7eb9060600160405180910390a460028101546113339060ff1685612805565b6113b8576004810180546005919060ff60a01b1916600160a01b830217905550857faa42449fddef1d25711fc108062ef5956c336c2ebd35fbe025ef96a2cf9a19396040516113aa906020808252601490820152732a32b6b832b930ba3ab932a2bc31bab939b4b7b760611b604082015260600190565b60405180910390a250611414565b6006810180546001600160a01b0319166001600160a01b03871617905560016004820154600160a01b900460ff1660058111156113f7576113f7612a48565b036114125760048101805460ff60a01b1916600160a11b1790555b505b5050505050565b5f81815260076020908152604091829020805483518184028101840190945280845260609392830182828015610a5c57602002820191905f5260205f2090815481526020019060010190808311610a485750505050509050919050565b7f00000000000000000000000000000000000000000000000000000000000000006001600160a01b0316637cedcb5a6040518163ffffffff1660e01b8152600401602060405180830381865afa1580156114d4573d5f803e3d5ffd5b505050506040513d601f19601f820116820180604052508101906114f89190612f33565b604051632474521560e21b8152600481018290523360248201527f00000000000000000000000000000000000000000000000000000000000000006001600160a01b0316906391d1485490604401602060405180830381865afa158015611561573d5f803e3d5ffd5b505050506040513d601f19601f820116820180604052508101906115859190612f4a565b6115ab57604051635270d4bf60e11b815233600482015260248101829052604401610445565b5f82815260046020526040812080549091036115dd57604051634915061960e11b815260048101849052602401610445565b60056004820154600160a01b900460ff1660058111156115ff576115ff612a48565b0361162e576004818101546040516308da0bc360e21b8152610445928692600160a01b900460ff169101612f65565b806005015442106116625760058101546040516371202de360e01b8152610445918591600401918252602082015260400190565b60036004820154600160a01b900460ff16600581111561168457611684612a48565b146116b3576004818101546040516308da0bc360e21b8152610445928692600160a01b900460ff169101612f65565b60048101805460ff60a01b1916600160a21b179055604051339084907f8e471f4acb117694e6da6c65271bc4b52148b58f84e87698d032be34b2c873e5905f90a3505050565b61175560408051610160810182525f80825260208201819052918101829052606081018290526080810182905260a0810182905260c0810182905260e08101829052610100810182905261012081018290529061014082015290565b5f828152600560209081526040918290208251610160810184528154815260018201546001600160a01b03169281019290925260028082015493830193909352600381015460ff808216151560608501526101008083048216151560808601526201000083048216151560a0860152630100000083048216151560c08087019190915264010000000084048316151560e0870152650100000000008404831615159186019190915266010000000000008304901b6001600160c01b03191661012085015292939192610140850192600160701b909204169081111561183c5761183c612a48565b60028111156106c8576106c8612a48565b7f00000000000000000000000000000000000000000000000000000000000000006001600160a01b0316635bb65d326040518163ffffffff1660e01b8152600401602060405180830381865afa1580156118a9573d5f803e3d5ffd5b505050506040513d601f19601f820116820180604052508101906118cd9190612f33565b604051632474521560e21b8152600481018290523360248201527f00000000000000000000000000000000000000000000000000000000000000006001600160a01b0316906391d1485490604401602060405180830381865afa158015611936573d5f803e3d5ffd5b505050506040513d601f19601f8201168201806040525081019061195a9190612f4a565b61198057604051635270d4bf60e11b815233600482015260248101829052604401610445565b5f89815260036020526040812080549091036119b257604051633237507b60e01b8152600481018b9052602401610445565b5f8a81526006602052604090205460ff16156119e45760405163411d3c0360e01b8152600481018b9052602401610445565b6119ed836126c1565b611a16576040516316d10f6d60e31b81526001600160c01b031984166004820152602401610445565b60016004820154600160a01b900460ff166006811115611a3857611a38612a48565b14611a6757600481810154604051632b3f37f560e11b8152610445928d92600160a01b900460ff169101612fa5565b60408051610160810182528b815233602082015242918101919091528915156060820152881515608082015287151560a082015286151560c082015285151560e08201528415156101008201526001600160c01b0319841661012082015261014081015f90525f8b81526005602090815260409182902083518155908301516001820180546001600160a01b039092166001600160a01b0319909216919091179055908201516002808301919091556060830151600383018054608086015160a087015160c08089015160e08a0151610100808c01516101208d015190941c6601000000000000026dffffffffffffffff00000000000019941515650100000000000265ff000000000019931515640100000000029390931665ffff000000001994151563010000000263ff0000001997151562010000029790971663ffff00001998151590930261ff00199b15159b909b1661ffff1990991698909817999099179590951694909417929092179190911692909217179081168317825561014086015193919260ff60701b19166effffffffffffffffff000000000000199091161790600160701b908490811115611c2257611c22612a48565b021790555050505f8a8152600660205260408120805460ff19166001179055600482018054600160a11b6001600160a81b031990911633171790558980611c665750885b80611c6e5750875b80611c765750865b80611c7e5750855b80611c865750845b9050336001600160a01b03168b7f17140c0ea28e6603c350893433e2f074fe6569c21ae120ec448e7e650fe569f483604051611cc6911515815260200190565b60405180910390a35050505050505050505050565b5f60607f00000000000000000000000000000000000000000000000000000000000000006001600160a01b0316636e1d616e6040518163ffffffff1660e01b8152600401602060405180830381865afa158015611d3a573d5f803e3d5ffd5b505050506040513d601f19601f82011682018060405250810190611d5e9190612f33565b604051632474521560e21b8152600481018290523360248201527f00000000000000000000000000000000000000000000000000000000000000006001600160a01b0316906391d1485490604401602060405180830381865afa158015611dc7573d5f803e3d5ffd5b505050506040513d601f19601f82011682018060405250810190611deb9190612f4a565b611e1157604051635270d4bf60e11b815233600482015260248101829052604401610445565b60028054905f611e2083612f8d565b9091555092505f856002811115611e3957611e39612a48565b0361218a575f84815260076020526040812090805b8254811015611e9b5760085f848381548110611e6c57611e6c612fe7565b905f5260205f20015481526020019081526020015f208054905082611e919190612ffb565b9150600101611e4e565b508067ffffffffffffffff811115611eb557611eb561300e565b604051908082528060200260200182016040528015611ede578160200160208202803683370190505b5093505f805b8354811015612146575f848281548110611f0057611f00612fe7565b5f91825260209091200154905060065f82815260036020526040902060040154600160a01b900460ff166006811115611f3b57611f3b612a48565b14611fbc575f81815260036020526040902060040180546006919060ff60a01b1916600160a01b830217905550807f480d65acebe59da4f48ad8f1a33c1eebfda582a15fcc3dae7bb4487356d60bc9604051611fb3906020808252600890820152674c6f6f6b4261636b60c01b604082015260600190565b60405180910390a25b5f818152600860205260408120905b815481101561213b57600560045f848481548110611feb57611feb612fe7565b905f5260205f20015481526020019081526020015f2060040160149054906101000a900460ff16600581111561202357612023612a48565b146120ef57600560045f84848154811061203f5761203f612fe7565b5f91825260208083209091015483528201929092526040019020600401805460ff60a01b1916600160a01b83600581111561207c5761207c612a48565b021790555081818154811061209357612093612fe7565b905f5260205f2001547faa42449fddef1d25711fc108062ef5956c336c2ebd35fbe025ef96a2cf9a19396040516120e6906020808252600890820152674c6f6f6b4261636b60c01b604082015260600190565b60405180910390a25b81818154811061210157612101612fe7565b905f5260205f20015489868061211690612f8d565b97508151811061212857612128612fe7565b6020908102919091010152600101611fcb565b505050600101611ee4565b50808552867fd6aebd90080d93a1dc392cc807deec08fc985d75e3e1ca8728c65e75f3cb80318660405161217a9190612b90565b60405180910390a250505061219b565b604080515f81526020810190915291505b83837f2143d1e8bc73dec6656bb416eed274aaeea61e13ee85a73f024a248b1dc881288785516040516121cf929190613022565b60405180910390a3509250929050565b5f7f00000000000000000000000000000000000000000000000000000000000000006001600160a01b031663a5e165d96040518163ffffffff1660e01b8152600401602060405180830381865afa15801561223c573d5f803e3d5ffd5b505050506040513d601f19601f820116820180604052508101906122609190612f33565b604051632474521560e21b8152600481018290523360248201527f00000000000000000000000000000000000000000000000000000000000000006001600160a01b0316906391d1485490604401602060405180830381865afa1580156122c9573d5f803e3d5ffd5b505050506040513d601f19601f820116820180604052508101906122ed9190612f4a565b61231357604051635270d4bf60e11b815233600482015260248101829052604401610445565b5f858152600360205260408120805490910361234557604051633237507b60e01b815260048101879052602401610445565b600480820154600160a01b900460ff16600681111561236657612366612a48565b14158015612394575060056004820154600160a01b900460ff16600681111561239157612391612a48565b14155b156123c357600481810154604051632b3f37f560e11b8152610445928992600160a01b900460ff169101612fa5565b5f8560048111156123d6576123d6612a48565b036123f457604051636a7ed65b60e01b815260040160405180910390fd5b8361ffff165f03612418576040516306b8599560e21b815260040160405180910390fd5b5f86815260096020526040902054600382015461ffff918216919081169061244290871683612ffb565b111561248e5760038201548790869061246090849061ffff16613039565b6040516369a92ab960e11b8152600481019390935261ffff9182166024840152166044820152606401610445565b6124988582613054565b5f888152600960205260408120805461ffff191661ffff939093169290921790915560018054916124c883612f8d565b9190505593505f6124d98742612905565b905060405180610120016040528086815260200189815260200188600481111561250557612505612a48565b815261ffff8816602082015242604082015233606082015260800160018152602001828152602001336001600160a01b031681525060045f8781526020019081526020015f205f820151815f0155602082015181600101556040820151816002015f6101000a81548160ff0219169083600481111561258657612586612a48565b0217905550606082015160028201805461ffff9092166101000262ffff00199092169190911790556080820151600382015560a08201516004820180546001600160a01b039092166001600160a01b031983168117825560c0850151926001600160a81b03191617600160a01b83600581111561260557612605612a48565b021790555060e082015160058281019190915561010090920151600690910180546001600160a01b0319166001600160a01b039092169190911790555f8981526008602090815260408220805460018101825590835291200186905560048401805460ff60a01b1916600160a01b83021790555087857f402dec5b584814384318a966da043846eb1bc358d53c86e220299e63778bacab8989856040516126ae9392919061306f565b60405180910390a3505050509392505050565b5f6001600160c01b0319821661412b60f01b14806126ed57506001600160c01b0319821661412d60f01b145b8061270657506001600160c01b0319821661422b60f01b145b8061271f57506001600160c01b0319821661422d60f01b145b8061273957506001600160c01b031982166241422b60e81b145b8061275357506001600160c01b031982166241422d60e81b145b8061276c57506001600160c01b03198216614f2b60f01b145b8061278557506001600160c01b03198216614f2d60f01b145b92915050565b60038101545f9060ff16806127a957506003820154610100900460ff165b806127be5750600382015462010000900460ff165b806127d4575060038201546301000000900460ff165b806127eb57506003820154640100000000900460ff165b806127855750506003015465010000000000900460ff1690565b5f600183600481111561281a5761281a612a48565b03612840576002600183900b1280159061283957506006600183900b13155b9050612785565b600283600481111561285457612854612a48565b0361287a57601d19600183900b12801590612839575050601119600182900b1315612785565b600383600481111561288e5761288e612a48565b036128b2576014600183900b128015906128395750506018600182900b1315612785565b60048360048111156128c6576128c6612a48565b036128ec57601d19600183900b12801590612839575050601119600182900b1315612785565b60405163198f948f60e01b815260040160405180910390fd5b5f61290f83612931565b6129209061ffff1662015180613092565b61292a9083612ffb565b9392505050565b5f600182600481111561294657612946612a48565b036129535750602a919050565b600282600481111561296757612967612a48565b03612975575061016d919050565b600382600481111561298957612989612a48565b0361299657506005919050565b60048260048111156129aa576129aa612a48565b036128ec575061016d919050565b6040518061012001604052805f81526020015f81526020015f60048111156129e2576129e2612a48565b81525f6020820181905260408201819052606082018190526080820181905260a0820181905260c09091015290565b5f8060408385031215612a22575f80fd5b50508035926020909101359150565b5f60208284031215612a41575f80fd5b5035919050565b634e487b7160e01b5f52602160045260245ffd5b60078110612a6c57612a6c612a48565b9052565b5f6101008201905082518252602083015160208301526040830151604083015261ffff606084015116606083015267ffffffffffffffff60c01b608084015116608083015260a083015160018060a01b0380821660a08501528060c08601511660c0850152505060e0830151612ae960e0840182612a5c565b5092915050565b803561ffff81168114612b01575f80fd5b919050565b80356001600160c01b031981168114612b01575f80fd5b5f805f60608486031215612b2f575f80fd5b83359250612b3f60208501612af0565b9150612b4d60408501612b06565b90509250925092565b5f815180845260208085019450602084015f5b83811015612b8557815187529582019590820190600101612b69565b509495945050505050565b602081525f61292a6020830184612b56565b5f805f60408486031215612bb4575f80fd5b83359250602084013567ffffffffffffffff80821115612bd2575f80fd5b818601915086601f830112612be5575f80fd5b813581811115612bf3575f80fd5b876020828501011115612c04575f80fd5b6020830194508093505050509250925092565b60058110612a6c57612a6c612a48565b60068110612a6c57612a6c612a48565b5f6101208201905082518252602083015160208301526040830151612c5f6040840182612c17565b5061ffff60608401511660608301526080830151608083015260018060a01b0360a08401511660a083015260c0830151612c9c60c0840182612c27565b5060e083015160e083015261010080840151612cc2828501826001600160a01b03169052565b505092915050565b5f805f805f60a08688031215612cde575f80fd5b8535945060208601356001600160a01b0381168114612cfb575f80fd5b93506040860135600181900b8114612d11575f80fd5b94979396509394606081013594506080013592915050565b60038110612d3957612d39612a48565b50565b612a6c81612d29565b81518152602080830151610160830191612d69908401826001600160a01b03169052565b50604083015160408301526060830151612d87606084018215159052565b506080830151612d9b608084018215159052565b5060a0830151612daf60a084018215159052565b5060c0830151612dc360c084018215159052565b5060e0830151612dd760e084018215159052565b5061010083810151151590830152610120808401516001600160c01b0319169083015261014080840151612cc282850182612d3c565b8015158114612d39575f80fd5b5f805f805f805f80610100898b031215612e32575f80fd5b883597506020890135612e4481612e0d565b96506040890135612e5481612e0d565b95506060890135612e6481612e0d565b94506080890135612e7481612e0d565b935060a0890135612e8481612e0d565b925060c0890135612e9481612e0d565b9150612ea260e08a01612b06565b90509295985092959890939650565b5f8060408385031215612ec2575f80fd5b823560038110612ed0575f80fd5b946020939093013593505050565b828152604060208201525f612ef66040830184612b56565b949350505050565b5f805f60608486031215612f10575f80fd5b83359250602084013560058110612f25575f80fd5b9150612b4d60408501612af0565b5f60208284031215612f43575f80fd5b5051919050565b5f60208284031215612f5a575f80fd5b815161292a81612e0d565b8281526040810161292a6020830184612c27565b634e487b7160e01b5f52601160045260245ffd5b5f60018201612f9e57612f9e612f79565b5060010190565b8281526040810161292a6020830184612a5c565b60208152816020820152818360408301375f818301604090810191909152601f909201601f19160101919050565b634e487b7160e01b5f52603260045260245ffd5b8082018082111561278557612785612f79565b634e487b7160e01b5f52604160045260245ffd5b6040810161302f84612d29565b9281526020015290565b61ffff828116828216039080821115612ae957612ae9612f79565b61ffff818116838216019080821115612ae957612ae9612f79565b6060810161307d8286612c17565b61ffff93909316602082015260400152919050565b808202811582820484141761278557612785612f7956","linkReferences":{}},"methodIdentifiers":{"crossMatch(uint256,bytes32)":"15dab7a8","getComponent(uint256)":"4f27da18","getComponentsByUnit(uint256)":"33cb117a","getTestResult(uint256)":"e0b3271f","getUnit(uint256)":"1655bfbe","getUnitsByDonor(bytes32)":"b8c4fd2d","hasTestResult(uint256)":"36d63af6","produceComponent(uint256,uint8,uint16)":"faec654d","quarantineUnit(uint256,string)":"407ed2db","recordTestResult(uint256,bool,bool,bool,bool,bool,bool,bytes8)":"f1bfed97","recordTransfusion(uint256)":"baac1217","registerDonation(bytes32,uint16,bytes8)":"1d365549","registry()":"7b103999","releaseUnit(uint256)":"3f7bdf54","reportAdverseEvent(uint8,bytes32)":"fa440133","splitVolumeOf(uint256)":"6035453a","transferComponentCustody(uint256,address,int16,bytes32,bytes32)":"55ebd658"},"id":47}